{
  "_format": "hh-sol-artifact-1",
  "contractName": "Codyfighter",
  "sourceName": "contracts/Codyfighter.sol",
  "abi": [
    {
      "inputs": [],
      "stateMutability": "nonpayable",
      "type": "constructor"
    },
    {
      "anonymous": false,
      "inputs": [
        {
          "indexed": true,
          "internalType": "address",
          "name": "owner",
          "type": "address"
        },
        {
          "indexed": true,
          "internalType": "address",
          "name": "approved",
          "type": "address"
        },
        {
          "indexed": true,
          "internalType": "uint256",
          "name": "tokenId",
          "type": "uint256"
        }
      ],
      "name": "Approval",
      "type": "event"
    },
    {
      "anonymous": false,
      "inputs": [
        {
          "indexed": true,
          "internalType": "address",
          "name": "owner",
          "type": "address"
        },
        {
          "indexed": true,
          "internalType": "address",
          "name": "operator",
          "type": "address"
        },
        {
          "indexed": false,
          "internalType": "bool",
          "name": "approved",
          "type": "bool"
        }
      ],
      "name": "ApprovalForAll",
      "type": "event"
    },
    {
      "anonymous": false,
      "inputs": [
        {
          "indexed": false,
          "internalType": "uint256",
          "name": "_fromTokenId",
          "type": "uint256"
        },
        {
          "indexed": false,
          "internalType": "uint256",
          "name": "_toTokenId",
          "type": "uint256"
        }
      ],
      "name": "BatchMetadataUpdate",
      "type": "event"
    },
    {
      "anonymous": false,
      "inputs": [
        {
          "indexed": false,
          "internalType": "uint256",
          "name": "_tokenId",
          "type": "uint256"
        }
      ],
      "name": "MetadataUpdate",
      "type": "event"
    },
    {
      "anonymous": false,
      "inputs": [
        {
          "indexed": true,
          "internalType": "address",
          "name": "previousOwner",
          "type": "address"
        },
        {
          "indexed": true,
          "internalType": "address",
          "name": "newOwner",
          "type": "address"
        }
      ],
      "name": "OwnershipTransferred",
      "type": "event"
    },
    {
      "anonymous": false,
      "inputs": [
        {
          "indexed": false,
          "internalType": "address",
          "name": "account",
          "type": "address"
        }
      ],
      "name": "Paused",
      "type": "event"
    },
    {
      "anonymous": false,
      "inputs": [
        {
          "indexed": true,
          "internalType": "address",
          "name": "owner",
          "type": "address"
        },
        {
          "indexed": true,
          "internalType": "uint256",
          "name": "tokenId",
          "type": "uint256"
        }
      ],
      "name": "TokenBurned",
      "type": "event"
    },
    {
      "anonymous": false,
      "inputs": [
        {
          "indexed": true,
          "internalType": "address",
          "name": "owner",
          "type": "address"
        },
        {
          "indexed": true,
          "internalType": "uint256",
          "name": "tokenId",
          "type": "uint256"
        }
      ],
      "name": "TokenMinted",
      "type": "event"
    },
    {
      "anonymous": false,
      "inputs": [
        {
          "indexed": true,
          "internalType": "address",
          "name": "from",
          "type": "address"
        },
        {
          "indexed": true,
          "internalType": "address",
          "name": "to",
          "type": "address"
        },
        {
          "indexed": true,
          "internalType": "uint256",
          "name": "tokenId",
          "type": "uint256"
        }
      ],
      "name": "TokenTransferred",
      "type": "event"
    },
    {
      "anonymous": false,
      "inputs": [
        {
          "indexed": true,
          "internalType": "address",
          "name": "from",
          "type": "address"
        },
        {
          "indexed": true,
          "internalType": "address",
          "name": "to",
          "type": "address"
        },
        {
          "indexed": true,
          "internalType": "uint256",
          "name": "tokenId",
          "type": "uint256"
        }
      ],
      "name": "Transfer",
      "type": "event"
    },
    {
      "anonymous": false,
      "inputs": [
        {
          "indexed": false,
          "internalType": "address",
          "name": "account",
          "type": "address"
        }
      ],
      "name": "Unpaused",
      "type": "event"
    },
    {
      "inputs": [
        {
          "internalType": "address",
          "name": "to",
          "type": "address"
        },
        {
          "internalType": "uint256",
          "name": "tokenId",
          "type": "uint256"
        }
      ],
      "name": "approve",
      "outputs": [],
      "stateMutability": "nonpayable",
      "type": "function"
    },
    {
      "inputs": [
        {
          "internalType": "address",
          "name": "owner",
          "type": "address"
        }
      ],
      "name": "balanceOf",
      "outputs": [
        {
          "internalType": "uint256",
          "name": "",
          "type": "uint256"
        }
      ],
      "stateMutability": "view",
      "type": "function"
    },
    {
      "inputs": [
        {
          "internalType": "uint256",
          "name": "tokenId",
          "type": "uint256"
        }
      ],
      "name": "burn",
      "outputs": [],
      "stateMutability": "nonpayable",
      "type": "function"
    },
    {
      "inputs": [],
      "name": "getAllTokens",
      "outputs": [
        {
          "components": [
            {
              "internalType": "uint256",
              "name": "tokenId",
              "type": "uint256"
            },
            {
              "internalType": "address",
              "name": "owner",
              "type": "address"
            },
            {
              "internalType": "string",
              "name": "tokenURI",
              "type": "string"
            }
          ],
          "internalType": "struct Codyfighter.TokenData[]",
          "name": "",
          "type": "tuple[]"
        }
      ],
      "stateMutability": "view",
      "type": "function"
    },
    {
      "inputs": [
        {
          "internalType": "uint256",
          "name": "tokenId",
          "type": "uint256"
        }
      ],
      "name": "getApproved",
      "outputs": [
        {
          "internalType": "address",
          "name": "",
          "type": "address"
        }
      ],
      "stateMutability": "view",
      "type": "function"
    },
    {
      "inputs": [],
      "name": "getMaxTokenSupply",
      "outputs": [
        {
          "internalType": "uint256",
          "name": "",
          "type": "uint256"
        }
      ],
      "stateMutability": "view",
      "type": "function"
    },
    {
      "inputs": [
        {
          "internalType": "uint256",
          "name": "tokenId",
          "type": "uint256"
        }
      ],
      "name": "getTokenData",
      "outputs": [
        {
          "components": [
            {
              "internalType": "uint256",
              "name": "tokenId",
              "type": "uint256"
            },
            {
              "internalType": "address",
              "name": "owner",
              "type": "address"
            },
            {
              "internalType": "string",
              "name": "tokenURI",
              "type": "string"
            }
          ],
          "internalType": "struct Codyfighter.TokenData",
          "name": "",
          "type": "tuple"
        }
      ],
      "stateMutability": "view",
      "type": "function"
    },
    {
      "inputs": [
        {
          "internalType": "address",
          "name": "owner",
          "type": "address"
        },
        {
          "internalType": "address",
          "name": "operator",
          "type": "address"
        }
      ],
      "name": "isApprovedForAll",
      "outputs": [
        {
          "internalType": "bool",
          "name": "",
          "type": "bool"
        }
      ],
      "stateMutability": "view",
      "type": "function"
    },
    {
      "inputs": [],
      "name": "name",
      "outputs": [
        {
          "internalType": "string",
          "name": "",
          "type": "string"
        }
      ],
      "stateMutability": "view",
      "type": "function"
    },
    {
      "inputs": [],
      "name": "owner",
      "outputs": [
        {
          "internalType": "address",
          "name": "",
          "type": "address"
        }
      ],
      "stateMutability": "view",
      "type": "function"
    },
    {
      "inputs": [
        {
          "internalType": "uint256",
          "name": "tokenId",
          "type": "uint256"
        }
      ],
      "name": "ownerOf",
      "outputs": [
        {
          "internalType": "address",
          "name": "",
          "type": "address"
        }
      ],
      "stateMutability": "view",
      "type": "function"
    },
    {
      "inputs": [],
      "name": "pause",
      "outputs": [],
      "stateMutability": "nonpayable",
      "type": "function"
    },
    {
      "inputs": [],
      "name": "paused",
      "outputs": [
        {
          "internalType": "bool",
          "name": "",
          "type": "bool"
        }
      ],
      "stateMutability": "view",
      "type": "function"
    },
    {
      "inputs": [],
      "name": "renounceOwnership",
      "outputs": [],
      "stateMutability": "nonpayable",
      "type": "function"
    },
    {
      "inputs": [
        {
          "internalType": "address",
          "name": "to",
          "type": "address"
        },
        {
          "internalType": "uint256",
          "name": "tokenId",
          "type": "uint256"
        }
      ],
      "name": "safeMint",
      "outputs": [],
      "stateMutability": "nonpayable",
      "type": "function"
    },
    {
      "inputs": [
        {
          "internalType": "address",
          "name": "from",
          "type": "address"
        },
        {
          "internalType": "address",
          "name": "to",
          "type": "address"
        },
        {
          "internalType": "uint256",
          "name": "tokenId",
          "type": "uint256"
        }
      ],
      "name": "safeTransferFrom",
      "outputs": [],
      "stateMutability": "nonpayable",
      "type": "function"
    },
    {
      "inputs": [
        {
          "internalType": "address",
          "name": "from",
          "type": "address"
        },
        {
          "internalType": "address",
          "name": "to",
          "type": "address"
        },
        {
          "internalType": "uint256",
          "name": "tokenId",
          "type": "uint256"
        },
        {
          "internalType": "bytes",
          "name": "data",
          "type": "bytes"
        }
      ],
      "name": "safeTransferFrom",
      "outputs": [],
      "stateMutability": "nonpayable",
      "type": "function"
    },
    {
      "inputs": [
        {
          "internalType": "address",
          "name": "operator",
          "type": "address"
        },
        {
          "internalType": "bool",
          "name": "approved",
          "type": "bool"
        }
      ],
      "name": "setApprovalForAll",
      "outputs": [],
      "stateMutability": "nonpayable",
      "type": "function"
    },
    {
      "inputs": [
        {
          "internalType": "string",
          "name": "baseURI",
          "type": "string"
        }
      ],
      "name": "setBaseURI",
      "outputs": [],
      "stateMutability": "nonpayable",
      "type": "function"
    },
    {
      "inputs": [
        {
          "internalType": "uint256",
          "name": "maxSupply",
          "type": "uint256"
        }
      ],
      "name": "setMaxTokenSupply",
      "outputs": [],
      "stateMutability": "nonpayable",
      "type": "function"
    },
    {
      "inputs": [
        {
          "internalType": "bytes4",
          "name": "interfaceId",
          "type": "bytes4"
        }
      ],
      "name": "supportsInterface",
      "outputs": [
        {
          "internalType": "bool",
          "name": "",
          "type": "bool"
        }
      ],
      "stateMutability": "view",
      "type": "function"
    },
    {
      "inputs": [],
      "name": "symbol",
      "outputs": [
        {
          "internalType": "string",
          "name": "",
          "type": "string"
        }
      ],
      "stateMutability": "view",
      "type": "function"
    },
    {
      "inputs": [
        {
          "internalType": "uint256",
          "name": "tokenId",
          "type": "uint256"
        }
      ],
      "name": "tokenURI",
      "outputs": [
        {
          "internalType": "string",
          "name": "",
          "type": "string"
        }
      ],
      "stateMutability": "view",
      "type": "function"
    },
    {
      "inputs": [],
      "name": "totalSupply",
      "outputs": [
        {
          "internalType": "uint256",
          "name": "",
          "type": "uint256"
        }
      ],
      "stateMutability": "view",
      "type": "function"
    },
    {
      "inputs": [
        {
          "internalType": "address",
          "name": "from",
          "type": "address"
        },
        {
          "internalType": "address",
          "name": "to",
          "type": "address"
        },
        {
          "internalType": "uint256",
          "name": "tokenId",
          "type": "uint256"
        }
      ],
      "name": "transfer",
      "outputs": [],
      "stateMutability": "nonpayable",
      "type": "function"
    },
    {
      "inputs": [
        {
          "internalType": "address",
          "name": "from",
          "type": "address"
        },
        {
          "internalType": "address",
          "name": "to",
          "type": "address"
        },
        {
          "internalType": "uint256",
          "name": "tokenId",
          "type": "uint256"
        }
      ],
      "name": "transferFrom",
      "outputs": [],
      "stateMutability": "nonpayable",
      "type": "function"
    },
    {
      "inputs": [
        {
          "internalType": "address",
          "name": "newOwner",
          "type": "address"
        }
      ],
      "name": "transferOwnership",
      "outputs": [],
      "stateMutability": "nonpayable",
      "type": "function"
    },
    {
      "inputs": [],
      "name": "unpause",
      "outputs": [],
      "stateMutability": "nonpayable",
      "type": "function"
    },
    {
      "inputs": [],
      "name": "updateTokenURIs",
      "outputs": [],
      "stateMutability": "nonpayable",
      "type": "function"
    }
  ],
  "bytecode": "0x60806040523480156200001157600080fd5b506040518060400160405280600b81526020017f436f6479666967687465720000000000000000000000000000000000000000008152506040518060400160405280600881526020017f434669676874657200000000000000000000000000000000000000000000000081525081600090816200008f919062000540565b508060019081620000a1919062000540565b5050506000600760006101000a81548160ff021916908315150217905550620000df620000d36200011860201b60201c565b6200012060201b60201c565b612710600a819055506200011260405180606001604052806031815260200162004ea760319139620001e660201b60201c565b620006aa565b600033905090565b6000600760019054906101000a900473ffffffffffffffffffffffffffffffffffffffff16905081600760016101000a81548173ffffffffffffffffffffffffffffffffffffffff021916908373ffffffffffffffffffffffffffffffffffffffff1602179055508173ffffffffffffffffffffffffffffffffffffffff168173ffffffffffffffffffffffffffffffffffffffff167f8be0079c531659141344cd1fd0a4f28419497f9722a3daafe3b4186f6b6457e060405160405180910390a35050565b620001f66200020b60201b60201c565b806009908162000207919062000540565b5050565b6200021b6200011860201b60201c565b73ffffffffffffffffffffffffffffffffffffffff16620002416200029c60201b60201c565b73ffffffffffffffffffffffffffffffffffffffff16146200029a576040517f08c379a0000000000000000000000000000000000000000000000000000000008152600401620002919062000688565b60405180910390fd5b565b6000600760019054906101000a900473ffffffffffffffffffffffffffffffffffffffff16905090565b600081519050919050565b7f4e487b7100000000000000000000000000000000000000000000000000000000600052604160045260246000fd5b7f4e487b7100000000000000000000000000000000000000000000000000000000600052602260045260246000fd5b600060028204905060018216806200034857607f821691505b6020821081036200035e576200035d62000300565b5b50919050565b60008190508160005260206000209050919050565b60006020601f8301049050919050565b600082821b905092915050565b600060088302620003c87fffffffffffffffffffffffffffffffffffffffffffffffffffffffffffffffff8262000389565b620003d4868362000389565b95508019841693508086168417925050509392505050565b6000819050919050565b6000819050919050565b6000620004216200041b6200041584620003ec565b620003f6565b620003ec565b9050919050565b6000819050919050565b6200043d8362000400565b620004556200044c8262000428565b84845462000396565b825550505050565b600090565b6200046c6200045d565b6200047981848462000432565b505050565b5b81811015620004a1576200049560008262000462565b6001810190506200047f565b5050565b601f821115620004f057620004ba8162000364565b620004c58462000379565b81016020851015620004d5578190505b620004ed620004e48562000379565b8301826200047e565b50505b505050565b600082821c905092915050565b60006200051560001984600802620004f5565b1980831691505092915050565b600062000530838362000502565b9150826002028217905092915050565b6200054b82620002c6565b67ffffffffffffffff811115620005675762000566620002d1565b5b6200057382546200032f565b62000580828285620004a5565b600060209050601f831160018114620005b85760008415620005a3578287015190505b620005af858262000522565b8655506200061f565b601f198416620005c88662000364565b60005b82811015620005f257848901518255600182019150602085019450602081019050620005cb565b868310156200061257848901516200060e601f89168262000502565b8355505b6001600288020188555050505b505050505050565b600082825260208201905092915050565b7f4f776e61626c653a2063616c6c6572206973206e6f7420746865206f776e6572600082015250565b60006200067060208362000627565b91506200067d8262000638565b602082019050919050565b60006020820190508181036000830152620006a38162000661565b9050919050565b6147ed80620006ba6000396000f3fe608060405234801561001057600080fd5b50600436106101cf5760003560e01c806370a0823111610104578063a22cb465116100a2578063beabacc811610071578063beabacc8146104ba578063c87b56dd146104d6578063e985e9c514610506578063f2fde38b14610536576101cf565b8063a22cb46514610436578063b07ed98214610452578063b09afec11461046e578063b88d4fde1461049e576101cf565b80638da5cb5b116100de5780638da5cb5b146103d457806395d89b41146103f257806395f3325914610410578063a14481941461041a576101cf565b806370a0823114610390578063715018a6146103c05780638456cb59146103ca576101cf565b80633f4ba83a116101715780634cdf94481161014b5780634cdf94481461030857806355f804b3146103265780635c975abb146103425780636352211e14610360576101cf565b80633f4ba83a146102c657806342842e0e146102d057806342966c68146102ec576101cf565b8063095ea7b3116101ad578063095ea7b31461025257806318160ddd1461026e57806323b872dd1461028c5780632a5c792a146102a8576101cf565b806301ffc9a7146101d457806306fdde0314610204578063081812fc14610222575b600080fd5b6101ee60048036038101906101e99190612c5a565b610552565b6040516101fb9190612ca2565b60405180910390f35b61020c610564565b6040516102199190612d4d565b60405180910390f35b61023c60048036038101906102379190612da5565b6105f6565b6040516102499190612e13565b60405180910390f35b61026c60048036038101906102679190612e5a565b61063c565b005b610276610753565b6040516102839190612ea9565b60405180910390f35b6102a660048036038101906102a19190612ec4565b61075d565b005b6102b06107bd565b6040516102bd9190613091565b60405180910390f35b6102ce610999565b005b6102ea60048036038101906102e59190612ec4565b6109ab565b005b61030660048036038101906103019190612da5565b6109cb565b005b610310610b9a565b60405161031d9190612ea9565b60405180910390f35b610340600480360381019061033b91906131e8565b610ba4565b005b61034a610bbf565b6040516103579190612ca2565b60405180910390f35b61037a60048036038101906103759190612da5565b610bd6565b6040516103879190612e13565b60405180910390f35b6103aa60048036038101906103a59190613231565b610c5c565b6040516103b79190612ea9565b60405180910390f35b6103c8610d13565b005b6103d2610d27565b005b6103dc610d39565b6040516103e99190612e13565b60405180910390f35b6103fa610d63565b6040516104079190612d4d565b60405180910390f35b610418610df5565b005b610434600480360381019061042f9190612e5a565b610ea5565b005b610450600480360381019061044b919061328a565b611149565b005b61046c60048036038101906104679190612da5565b61115f565b005b61048860048036038101906104839190612da5565b611171565b604051610495919061331a565b60405180910390f35b6104b860048036038101906104b391906133dd565b6112d8565b005b6104d460048036038101906104cf9190612ec4565b61133a565b005b6104f060048036038101906104eb9190612da5565b611509565b6040516104fd9190612d4d565b60405180910390f35b610520600480360381019061051b9190613460565b6115f9565b60405161052d9190612ca2565b60405180910390f35b610550600480360381019061054b9190613231565b61168d565b005b600061055d82611710565b9050919050565b606060008054610573906134cf565b80601f016020809104026020016040519081016040528092919081815260200182805461059f906134cf565b80156105ec5780601f106105c1576101008083540402835291602001916105ec565b820191906000526020600020905b8154815290600101906020018083116105cf57829003601f168201915b5050505050905090565b600061060182611771565b6004600083815260200190815260200160002060009054906101000a900473ffffffffffffffffffffffffffffffffffffffff169050919050565b600061064782610bd6565b90508073ffffffffffffffffffffffffffffffffffffffff168373ffffffffffffffffffffffffffffffffffffffff16036106b7576040517f08c379a00000000000000000000000000000000000000000000000000000000081526004016106ae90613572565b60405180910390fd5b8073ffffffffffffffffffffffffffffffffffffffff166106d66117bc565b73ffffffffffffffffffffffffffffffffffffffff1614806107055750610704816106ff6117bc565b6115f9565b5b610744576040517f08c379a000000000000000000000000000000000000000000000000000000000815260040161073b90613604565b60405180910390fd5b61074e83836117c4565b505050565b6000600b54905090565b61076e6107686117bc565b8261187d565b6107ad576040517f08c379a00000000000000000000000000000000000000000000000000000000081526004016107a490613696565b60405180910390fd5b6107b8838383611912565b505050565b60606000600c8054905067ffffffffffffffff8111156107e0576107df6130bd565b5b60405190808252806020026020018201604052801561081957816020015b610806612b5a565b8152602001906001900390816107fe5790505b50905060005b600c80549050811015610991576000600c8281548110610842576108416136b6565b5b9060005260206000200154905060086000828152602001908152602001600020604051806060016040529081600082015481526020016001820160009054906101000a900473ffffffffffffffffffffffffffffffffffffffff1673ffffffffffffffffffffffffffffffffffffffff1673ffffffffffffffffffffffffffffffffffffffff1681526020016002820180546108dd906134cf565b80601f0160208091040260200160405190810160405280929190818152602001828054610909906134cf565b80156109565780601f1061092b57610100808354040283529160200191610956565b820191906000526020600020905b81548152906001019060200180831161093957829003601f168201915b505050505081525050838381518110610972576109716136b6565b5b602002602001018190525050808061098990613714565b91505061081f565b508091505090565b6109a1611c0b565b6109a9611c89565b565b6109c6838383604051806020016040528060008152506112d8565b505050565b6109d481611cec565b610a13576040517f08c379a0000000000000000000000000000000000000000000000000000000008152600401610a0a906137ce565b60405180910390fd5b610a24610a1e6117bc565b8261187d565b610a63576040517f08c379a0000000000000000000000000000000000000000000000000000000008152600401610a5a90613860565b60405180910390fd5b610a6c81611d2d565b60005b600c80549050811015610b335781600c8281548110610a9157610a906136b6565b5b906000526020600020015403610b2057600c6001600c80549050610ab59190613880565b81548110610ac657610ac56136b6565b5b9060005260206000200154600c8281548110610ae557610ae46136b6565b5b9060005260206000200181905550600c805480610b0557610b046138b4565b5b60019003818190600052602060002001600090559055610b33565b8080610b2b90613714565b915050610a6f565b50600b6000815480929190610b47906138e3565b919050555080610b556117bc565b73ffffffffffffffffffffffffffffffffffffffff167f1af5163f80e79b5e554f61e1d052084d3a3fe1166e42a265798c4e2ddce8ffa260405160405180910390a350565b6000600a54905090565b610bac611c0b565b8060099081610bbb9190613ab8565b5050565b6000600760009054906101000a900460ff16905090565b600080610be283611d39565b9050600073ffffffffffffffffffffffffffffffffffffffff168173ffffffffffffffffffffffffffffffffffffffff1603610c53576040517f08c379a0000000000000000000000000000000000000000000000000000000008152600401610c4a90613bd6565b60405180910390fd5b80915050919050565b60008073ffffffffffffffffffffffffffffffffffffffff168273ffffffffffffffffffffffffffffffffffffffff1603610ccc576040517f08c379a0000000000000000000000000000000000000000000000000000000008152600401610cc390613c68565b60405180910390fd5b600360008373ffffffffffffffffffffffffffffffffffffffff1673ffffffffffffffffffffffffffffffffffffffff168152602001908152602001600020549050919050565b610d1b611c0b565b610d256000611d76565b565b610d2f611c0b565b610d37611e3c565b565b6000600760019054906101000a900473ffffffffffffffffffffffffffffffffffffffff16905090565b606060018054610d72906134cf565b80601f0160208091040260200160405190810160405280929190818152602001828054610d9e906134cf565b8015610deb5780601f10610dc057610100808354040283529160200191610deb565b820191906000526020600020905b815481529060010190602001808311610dce57829003601f168201915b5050505050905090565b610dfd611c0b565b60005b600c80549050811015610ea2576000600c8281548110610e2357610e226136b6565b5b9060005260206000200154905060006009610e3d83611e9f565b604051602001610e4e929190613d47565b6040516020818303038152906040529050610e698282611f6d565b80600860008481526020019081526020016000206002019081610e8c9190613ab8565b5050508080610e9a90613714565b915050610e00565b50565b610ead611c0b565b610eb681611cec565b15610ef6576040517f08c379a0000000000000000000000000000000000000000000000000000000008152600401610eed90613ddd565b60405180910390fd5b610eff81612011565b15610f3f576040517f08c379a0000000000000000000000000000000000000000000000000000000008152600401610f3690613e6f565b60405180910390fd5b610f47610bbf565b15610f87576040517f08c379a0000000000000000000000000000000000000000000000000000000008152600401610f7e90613edb565b60405180910390fd5b600a54600b541115610fce576040517f08c379a0000000000000000000000000000000000000000000000000000000008152600401610fc590613f6d565b60405180910390fd5b60006009610fdb83611e9f565b604051602001610fec929190613d47565b60405160208183030381529060405290506110078383612073565b6110118282611f6d565b60405180606001604052808381526020018473ffffffffffffffffffffffffffffffffffffffff16815260200182815250600860008481526020019081526020016000206000820151816000015560208201518160010160006101000a81548173ffffffffffffffffffffffffffffffffffffffff021916908373ffffffffffffffffffffffffffffffffffffffff16021790555060408201518160020190816110bb9190613ab8565b50905050600c829080600181540180825580915050600190039060005260206000200160009091909190915055600b60008154809291906110fb90613714565b9190505550818373ffffffffffffffffffffffffffffffffffffffff167fb9144c96c86541f6fa89c9f2f02495cccf4b08cd6643e26d34ee00aa586558a860405160405180910390a3505050565b61115b6111546117bc565b8383612091565b5050565b611167611c0b565b80600a8190555050565b611179612b5a565b61118282611cec565b6111c1576040517f08c379a00000000000000000000000000000000000000000000000000000000081526004016111b8906137ce565b60405180910390fd5b60086000838152602001908152602001600020604051806060016040529081600082015481526020016001820160009054906101000a900473ffffffffffffffffffffffffffffffffffffffff1673ffffffffffffffffffffffffffffffffffffffff1673ffffffffffffffffffffffffffffffffffffffff16815260200160028201805461124f906134cf565b80601f016020809104026020016040519081016040528092919081815260200182805461127b906134cf565b80156112c85780601f1061129d576101008083540402835291602001916112c8565b820191906000526020600020905b8154815290600101906020018083116112ab57829003601f168201915b5050505050815250509050919050565b6112e96112e36117bc565b8361187d565b611328576040517f08c379a000000000000000000000000000000000000000000000000000000000815260040161131f90613696565b60405180910390fd5b611334848484846121fd565b50505050565b61134b6113456117bc565b8261187d565b61138a576040517f08c379a000000000000000000000000000000000000000000000000000000000815260040161138190613fff565b60405180910390fd5b600073ffffffffffffffffffffffffffffffffffffffff168273ffffffffffffffffffffffffffffffffffffffff16036113f9576040517f08c379a00000000000000000000000000000000000000000000000000000000081526004016113f090614091565b60405180910390fd5b61140281611cec565b611441576040517f08c379a000000000000000000000000000000000000000000000000000000000815260040161143890614123565b60405180910390fd5b816008600083815260200190815260200160002060010160006101000a81548173ffffffffffffffffffffffffffffffffffffffff021916908373ffffffffffffffffffffffffffffffffffffffff1602179055506114a1838383611912565b808273ffffffffffffffffffffffffffffffffffffffff166114c283610bd6565b73ffffffffffffffffffffffffffffffffffffffff167f9c8515990fd8c61431c4ac8db9b81475f90c292a1dda77731e56c22e64fc764360405160405180910390a4505050565b606061151482611cec565b611553576040517f08c379a000000000000000000000000000000000000000000000000000000000815260040161154a906137ce565b60405180910390fd5b600860008381526020019081526020016000206002018054611574906134cf565b80601f01602080910402602001604051908101604052809291908181526020018280546115a0906134cf565b80156115ed5780601f106115c2576101008083540402835291602001916115ed565b820191906000526020600020905b8154815290600101906020018083116115d057829003601f168201915b50505050509050919050565b6000600560008473ffffffffffffffffffffffffffffffffffffffff1673ffffffffffffffffffffffffffffffffffffffff16815260200190815260200160002060008373ffffffffffffffffffffffffffffffffffffffff1673ffffffffffffffffffffffffffffffffffffffff16815260200190815260200160002060009054906101000a900460ff16905092915050565b611695611c0b565b600073ffffffffffffffffffffffffffffffffffffffff168173ffffffffffffffffffffffffffffffffffffffff1603611704576040517f08c379a00000000000000000000000000000000000000000000000000000000081526004016116fb906141b5565b60405180910390fd5b61170d81611d76565b50565b6000634906490660e01b7bffffffffffffffffffffffffffffffffffffffffffffffffffffffff1916827bffffffffffffffffffffffffffffffffffffffffffffffffffffffff1916148061176a575061176982612259565b5b9050919050565b61177a81611cec565b6117b9576040517f08c379a00000000000000000000000000000000000000000000000000000000081526004016117b090613bd6565b60405180910390fd5b50565b600033905090565b816004600083815260200190815260200160002060006101000a81548173ffffffffffffffffffffffffffffffffffffffff021916908373ffffffffffffffffffffffffffffffffffffffff160217905550808273ffffffffffffffffffffffffffffffffffffffff1661183783610bd6565b73ffffffffffffffffffffffffffffffffffffffff167f8c5be1e5ebec7d5bd14f71427d1e84f3dd0314c0f7b2291e5b200ac8c7c3b92560405160405180910390a45050565b60008061188983610bd6565b90508073ffffffffffffffffffffffffffffffffffffffff168473ffffffffffffffffffffffffffffffffffffffff1614806118cb57506118ca81856115f9565b5b8061190957508373ffffffffffffffffffffffffffffffffffffffff166118f1846105f6565b73ffffffffffffffffffffffffffffffffffffffff16145b91505092915050565b8273ffffffffffffffffffffffffffffffffffffffff1661193282610bd6565b73ffffffffffffffffffffffffffffffffffffffff1614611988576040517f08c379a000000000000000000000000000000000000000000000000000000000815260040161197f90614247565b60405180910390fd5b600073ffffffffffffffffffffffffffffffffffffffff168273ffffffffffffffffffffffffffffffffffffffff16036119f7576040517f08c379a00000000000000000000000000000000000000000000000000000000081526004016119ee906142d9565b60405180910390fd5b611a04838383600161233b565b8273ffffffffffffffffffffffffffffffffffffffff16611a2482610bd6565b73ffffffffffffffffffffffffffffffffffffffff1614611a7a576040517f08c379a0000000000000000000000000000000000000000000000000000000008152600401611a7190614247565b60405180910390fd5b6004600082815260200190815260200160002060006101000a81549073ffffffffffffffffffffffffffffffffffffffff02191690556001600360008573ffffffffffffffffffffffffffffffffffffffff1673ffffffffffffffffffffffffffffffffffffffff168152602001908152602001600020600082825403925050819055506001600360008473ffffffffffffffffffffffffffffffffffffffff1673ffffffffffffffffffffffffffffffffffffffff16815260200190815260200160002060008282540192505081905550816002600083815260200190815260200160002060006101000a81548173ffffffffffffffffffffffffffffffffffffffff021916908373ffffffffffffffffffffffffffffffffffffffff160217905550808273ffffffffffffffffffffffffffffffffffffffff168473ffffffffffffffffffffffffffffffffffffffff167fddf252ad1be2c89b69c2b068fc378daa952ba7f163c4a11628f55a4df523b3ef60405160405180910390a4611c068383836001612341565b505050565b611c136117bc565b73ffffffffffffffffffffffffffffffffffffffff16611c31610d39565b73ffffffffffffffffffffffffffffffffffffffff1614611c87576040517f08c379a0000000000000000000000000000000000000000000000000000000008152600401611c7e90614345565b60405180910390fd5b565b611c91612347565b6000600760006101000a81548160ff0219169083151502179055507f5db9ee0a495bf2e6ff9c91a7834c1ba4fdd244a5e8aa4e537bd38aeae4b073aa611cd56117bc565b604051611ce29190612e13565b60405180910390a1565b60008073ffffffffffffffffffffffffffffffffffffffff16611d0e83611d39565b73ffffffffffffffffffffffffffffffffffffffff1614159050919050565b611d3681612390565b50565b60006002600083815260200190815260200160002060009054906101000a900473ffffffffffffffffffffffffffffffffffffffff169050919050565b6000600760019054906101000a900473ffffffffffffffffffffffffffffffffffffffff16905081600760016101000a81548173ffffffffffffffffffffffffffffffffffffffff021916908373ffffffffffffffffffffffffffffffffffffffff1602179055508173ffffffffffffffffffffffffffffffffffffffff168173ffffffffffffffffffffffffffffffffffffffff167f8be0079c531659141344cd1fd0a4f28419497f9722a3daafe3b4186f6b6457e060405160405180910390a35050565b611e446123e3565b6001600760006101000a81548160ff0219169083151502179055507f62e78cea01bee320cd4e420270b5ea74000d11b0c9f74754ebdbfc544b05a258611e886117bc565b604051611e959190612e13565b60405180910390a1565b606060006001611eae8461242d565b01905060008167ffffffffffffffff811115611ecd57611ecc6130bd565b5b6040519080825280601f01601f191660200182016040528015611eff5781602001600182028036833780820191505090505b509050600082602001820190505b600115611f62578080600190039150507f3031323334353637383961626364656600000000000000000000000000000000600a86061a8153600a8581611f5657611f55614365565b5b04945060008503611f0d575b819350505050919050565b611f7682611cec565b611fb5576040517f08c379a0000000000000000000000000000000000000000000000000000000008152600401611fac90614406565b60405180910390fd5b80600660008481526020019081526020016000209081611fd59190613ab8565b507ff8e1a15aba9398e019f0b49df1a4fde98ee17ae345cb5f6b5e2c27f5033e8ce7826040516120059190612ea9565b60405180910390a15050565b600080600090505b600c805490508110156120685782600c828154811061203b5761203a6136b6565b5b90600052602060002001540361205557600191505061206e565b808061206090613714565b915050612019565b50600090505b919050565b61208d828260405180602001604052806000815250612580565b5050565b8173ffffffffffffffffffffffffffffffffffffffff168373ffffffffffffffffffffffffffffffffffffffff16036120ff576040517f08c379a00000000000000000000000000000000000000000000000000000000081526004016120f690614472565b60405180910390fd5b80600560008573ffffffffffffffffffffffffffffffffffffffff1673ffffffffffffffffffffffffffffffffffffffff16815260200190815260200160002060008473ffffffffffffffffffffffffffffffffffffffff1673ffffffffffffffffffffffffffffffffffffffff16815260200190815260200160002060006101000a81548160ff0219169083151502179055508173ffffffffffffffffffffffffffffffffffffffff168373ffffffffffffffffffffffffffffffffffffffff167f17307eab39ab6107e8899845ad3d59bd9653f200f220920489ca2b5937696c31836040516121f09190612ca2565b60405180910390a3505050565b612208848484611912565b612214848484846125db565b612253576040517f08c379a000000000000000000000000000000000000000000000000000000000815260040161224a90614504565b60405180910390fd5b50505050565b60007f80ac58cd000000000000000000000000000000000000000000000000000000007bffffffffffffffffffffffffffffffffffffffffffffffffffffffff1916827bffffffffffffffffffffffffffffffffffffffffffffffffffffffff1916148061232457507f5b5e139f000000000000000000000000000000000000000000000000000000007bffffffffffffffffffffffffffffffffffffffffffffffffffffffff1916827bffffffffffffffffffffffffffffffffffffffffffffffffffffffff1916145b80612334575061233382612762565b5b9050919050565b50505050565b50505050565b61234f610bbf565b61238e576040517f08c379a000000000000000000000000000000000000000000000000000000000815260040161238590614570565b60405180910390fd5b565b612399816127cc565b60006006600083815260200190815260200160002080546123b9906134cf565b9050146123e0576006600082815260200190815260200160002060006123df9190612b91565b5b50565b6123eb610bbf565b1561242b576040517f08c379a0000000000000000000000000000000000000000000000000000000008152600401612422906145dc565b60405180910390fd5b565b600080600090507a184f03e93ff9f4daa797ed6e38ed64bf6a1f010000000000000000831061248b577a184f03e93ff9f4daa797ed6e38ed64bf6a1f010000000000000000838161248157612480614365565b5b0492506040810190505b6d04ee2d6d415b85acef810000000083106124c8576d04ee2d6d415b85acef810000000083816124be576124bd614365565b5b0492506020810190505b662386f26fc1000083106124f757662386f26fc1000083816124ed576124ec614365565b5b0492506010810190505b6305f5e1008310612520576305f5e100838161251657612515614365565b5b0492506008810190505b612710831061254557612710838161253b5761253a614365565b5b0492506004810190505b60648310612568576064838161255e5761255d614365565b5b0492506002810190505b600a8310612577576001810190505b80915050919050565b61258a838361291a565b61259760008484846125db565b6125d6576040517f08c379a00000000000000000000000000000000000000000000000000000000081526004016125cd90614504565b60405180910390fd5b505050565b60006125fc8473ffffffffffffffffffffffffffffffffffffffff16612b37565b15612755578373ffffffffffffffffffffffffffffffffffffffff1663150b7a026126256117bc565b8786866040518563ffffffff1660e01b81526004016126479493929190614651565b6020604051808303816000875af192505050801561268357506040513d601f19601f8201168201806040525081019061268091906146b2565b60015b612705573d80600081146126b3576040519150601f19603f3d011682016040523d82523d6000602084013e6126b8565b606091505b5060008151036126fd576040517f08c379a00000000000000000000000000000000000000000000000000000000081526004016126f490614504565b60405180910390fd5b805181602001fd5b63150b7a0260e01b7bffffffffffffffffffffffffffffffffffffffffffffffffffffffff1916817bffffffffffffffffffffffffffffffffffffffffffffffffffffffff19161491505061275a565b600190505b949350505050565b60007f01ffc9a7000000000000000000000000000000000000000000000000000000007bffffffffffffffffffffffffffffffffffffffffffffffffffffffff1916827bffffffffffffffffffffffffffffffffffffffffffffffffffffffff1916149050919050565b60006127d782610bd6565b90506127e781600084600161233b565b6127f082610bd6565b90506004600083815260200190815260200160002060006101000a81549073ffffffffffffffffffffffffffffffffffffffff02191690556001600360008373ffffffffffffffffffffffffffffffffffffffff1673ffffffffffffffffffffffffffffffffffffffff168152602001908152602001600020600082825403925050819055506002600083815260200190815260200160002060006101000a81549073ffffffffffffffffffffffffffffffffffffffff021916905581600073ffffffffffffffffffffffffffffffffffffffff168273ffffffffffffffffffffffffffffffffffffffff167fddf252ad1be2c89b69c2b068fc378daa952ba7f163c4a11628f55a4df523b3ef60405160405180910390a4612916816000846001612341565b5050565b600073ffffffffffffffffffffffffffffffffffffffff168273ffffffffffffffffffffffffffffffffffffffff1603612989576040517f08c379a00000000000000000000000000000000000000000000000000000000081526004016129809061472b565b60405180910390fd5b61299281611cec565b156129d2576040517f08c379a00000000000000000000000000000000000000000000000000000000081526004016129c990614797565b60405180910390fd5b6129e060008383600161233b565b6129e981611cec565b15612a29576040517f08c379a0000000000000000000000000000000000000000000000000000000008152600401612a2090614797565b60405180910390fd5b6001600360008473ffffffffffffffffffffffffffffffffffffffff1673ffffffffffffffffffffffffffffffffffffffff16815260200190815260200160002060008282540192505081905550816002600083815260200190815260200160002060006101000a81548173ffffffffffffffffffffffffffffffffffffffff021916908373ffffffffffffffffffffffffffffffffffffffff160217905550808273ffffffffffffffffffffffffffffffffffffffff16600073ffffffffffffffffffffffffffffffffffffffff167fddf252ad1be2c89b69c2b068fc378daa952ba7f163c4a11628f55a4df523b3ef60405160405180910390a4612b33600083836001612341565b5050565b6000808273ffffffffffffffffffffffffffffffffffffffff163b119050919050565b604051806060016040528060008152602001600073ffffffffffffffffffffffffffffffffffffffff168152602001606081525090565b508054612b9d906134cf565b6000825580601f10612baf5750612bce565b601f016020900490600052602060002090810190612bcd9190612bd1565b5b50565b5b80821115612bea576000816000905550600101612bd2565b5090565b6000604051905090565b600080fd5b600080fd5b60007fffffffff0000000000000000000000000000000000000000000000000000000082169050919050565b612c3781612c02565b8114612c4257600080fd5b50565b600081359050612c5481612c2e565b92915050565b600060208284031215612c7057612c6f612bf8565b5b6000612c7e84828501612c45565b91505092915050565b60008115159050919050565b612c9c81612c87565b82525050565b6000602082019050612cb76000830184612c93565b92915050565b600081519050919050565b600082825260208201905092915050565b60005b83811015612cf7578082015181840152602081019050612cdc565b60008484015250505050565b6000601f19601f8301169050919050565b6000612d1f82612cbd565b612d298185612cc8565b9350612d39818560208601612cd9565b612d4281612d03565b840191505092915050565b60006020820190508181036000830152612d678184612d14565b905092915050565b6000819050919050565b612d8281612d6f565b8114612d8d57600080fd5b50565b600081359050612d9f81612d79565b92915050565b600060208284031215612dbb57612dba612bf8565b5b6000612dc984828501612d90565b91505092915050565b600073ffffffffffffffffffffffffffffffffffffffff82169050919050565b6000612dfd82612dd2565b9050919050565b612e0d81612df2565b82525050565b6000602082019050612e286000830184612e04565b92915050565b612e3781612df2565b8114612e4257600080fd5b50565b600081359050612e5481612e2e565b92915050565b60008060408385031215612e7157612e70612bf8565b5b6000612e7f85828601612e45565b9250506020612e9085828601612d90565b9150509250929050565b612ea381612d6f565b82525050565b6000602082019050612ebe6000830184612e9a565b92915050565b600080600060608486031215612edd57612edc612bf8565b5b6000612eeb86828701612e45565b9350506020612efc86828701612e45565b9250506040612f0d86828701612d90565b9150509250925092565b600081519050919050565b600082825260208201905092915050565b6000819050602082019050919050565b612f4c81612d6f565b82525050565b612f5b81612df2565b82525050565b600082825260208201905092915050565b6000612f7d82612cbd565b612f878185612f61565b9350612f97818560208601612cd9565b612fa081612d03565b840191505092915050565b6000606083016000830151612fc36000860182612f43565b506020830151612fd66020860182612f52565b5060408301518482036040860152612fee8282612f72565b9150508091505092915050565b60006130078383612fab565b905092915050565b6000602082019050919050565b600061302782612f17565b6130318185612f22565b93508360208202850161304385612f33565b8060005b8581101561307f57848403895281516130608582612ffb565b945061306b8361300f565b925060208a01995050600181019050613047565b50829750879550505050505092915050565b600060208201905081810360008301526130ab818461301c565b905092915050565b600080fd5b600080fd5b7f4e487b7100000000000000000000000000000000000000000000000000000000600052604160045260246000fd5b6130f582612d03565b810181811067ffffffffffffffff82111715613114576131136130bd565b5b80604052505050565b6000613127612bee565b905061313382826130ec565b919050565b600067ffffffffffffffff821115613153576131526130bd565b5b61315c82612d03565b9050602081019050919050565b82818337600083830152505050565b600061318b61318684613138565b61311d565b9050828152602081018484840111156131a7576131a66130b8565b5b6131b2848285613169565b509392505050565b600082601f8301126131cf576131ce6130b3565b5b81356131df848260208601613178565b91505092915050565b6000602082840312156131fe576131fd612bf8565b5b600082013567ffffffffffffffff81111561321c5761321b612bfd565b5b613228848285016131ba565b91505092915050565b60006020828403121561324757613246612bf8565b5b600061325584828501612e45565b91505092915050565b61326781612c87565b811461327257600080fd5b50565b6000813590506132848161325e565b92915050565b600080604083850312156132a1576132a0612bf8565b5b60006132af85828601612e45565b92505060206132c085828601613275565b9150509250929050565b60006060830160008301516132e26000860182612f43565b5060208301516132f56020860182612f52565b506040830151848203604086015261330d8282612f72565b9150508091505092915050565b6000602082019050818103600083015261333481846132ca565b905092915050565b600067ffffffffffffffff821115613357576133566130bd565b5b61336082612d03565b9050602081019050919050565b600061338061337b8461333c565b61311d565b90508281526020810184848401111561339c5761339b6130b8565b5b6133a7848285613169565b509392505050565b600082601f8301126133c4576133c36130b3565b5b81356133d484826020860161336d565b91505092915050565b600080600080608085870312156133f7576133f6612bf8565b5b600061340587828801612e45565b945050602061341687828801612e45565b935050604061342787828801612d90565b925050606085013567ffffffffffffffff81111561344857613447612bfd565b5b613454878288016133af565b91505092959194509250565b6000806040838503121561347757613476612bf8565b5b600061348585828601612e45565b925050602061349685828601612e45565b9150509250929050565b7f4e487b7100000000000000000000000000000000000000000000000000000000600052602260045260246000fd5b600060028204905060018216806134e757607f821691505b6020821081036134fa576134f96134a0565b5b50919050565b7f4552433732313a20617070726f76616c20746f2063757272656e74206f776e6560008201527f7200000000000000000000000000000000000000000000000000000000000000602082015250565b600061355c602183612cc8565b915061356782613500565b604082019050919050565b6000602082019050818103600083015261358b8161354f565b9050919050565b7f4552433732313a20617070726f76652063616c6c6572206973206e6f7420746f60008201527f6b656e206f776e6572206f7220617070726f76656420666f7220616c6c000000602082015250565b60006135ee603d83612cc8565b91506135f982613592565b604082019050919050565b6000602082019050818103600083015261361d816135e1565b9050919050565b7f4552433732313a2063616c6c6572206973206e6f7420746f6b656e206f776e6560008201527f72206f7220617070726f76656400000000000000000000000000000000000000602082015250565b6000613680602d83612cc8565b915061368b82613624565b604082019050919050565b600060208201905081810360008301526136af81613673565b9050919050565b7f4e487b7100000000000000000000000000000000000000000000000000000000600052603260045260246000fd5b7f4e487b7100000000000000000000000000000000000000000000000000000000600052601160045260246000fd5b600061371f82612d6f565b91507fffffffffffffffffffffffffffffffffffffffffffffffffffffffffffffffff8203613751576137506136e5565b5b600182019050919050565b7f436f6479666967687465723a20746f6b656e20646f6573206e6f74206578697360008201527f7400000000000000000000000000000000000000000000000000000000000000602082015250565b60006137b8602183612cc8565b91506137c38261375c565b604082019050919050565b600060208201905081810360008301526137e7816137ab565b9050919050565b7f436f6479666967687465723a2063616c6c6572206973206e6f74206f776e657260008201527f206e6f7220617070726f76656400000000000000000000000000000000000000602082015250565b600061384a602d83612cc8565b9150613855826137ee565b604082019050919050565b600060208201905081810360008301526138798161383d565b9050919050565b600061388b82612d6f565b915061389683612d6f565b92508282039050818111156138ae576138ad6136e5565b5b92915050565b7f4e487b7100000000000000000000000000000000000000000000000000000000600052603160045260246000fd5b60006138ee82612d6f565b915060008203613901576139006136e5565b5b600182039050919050565b60008190508160005260206000209050919050565b60006020601f8301049050919050565b600082821b905092915050565b60006008830261396e7fffffffffffffffffffffffffffffffffffffffffffffffffffffffffffffffff82613931565b6139788683613931565b95508019841693508086168417925050509392505050565b6000819050919050565b60006139b56139b06139ab84612d6f565b613990565b612d6f565b9050919050565b6000819050919050565b6139cf8361399a565b6139e36139db826139bc565b84845461393e565b825550505050565b600090565b6139f86139eb565b613a038184846139c6565b505050565b5b81811015613a2757613a1c6000826139f0565b600181019050613a09565b5050565b601f821115613a6c57613a3d8161390c565b613a4684613921565b81016020851015613a55578190505b613a69613a6185613921565b830182613a08565b50505b505050565b600082821c905092915050565b6000613a8f60001984600802613a71565b1980831691505092915050565b6000613aa88383613a7e565b9150826002028217905092915050565b613ac182612cbd565b67ffffffffffffffff811115613ada57613ad96130bd565b5b613ae482546134cf565b613aef828285613a2b565b600060209050601f831160018114613b225760008415613b10578287015190505b613b1a8582613a9c565b865550613b82565b601f198416613b308661390c565b60005b82811015613b5857848901518255600182019150602085019450602081019050613b33565b86831015613b755784890151613b71601f891682613a7e565b8355505b6001600288020188555050505b505050505050565b7f4552433732313a20696e76616c696420746f6b656e2049440000000000000000600082015250565b6000613bc0601883612cc8565b9150613bcb82613b8a565b602082019050919050565b60006020820190508181036000830152613bef81613bb3565b9050919050565b7f4552433732313a2061646472657373207a65726f206973206e6f74206120766160008201527f6c6964206f776e65720000000000000000000000000000000000000000000000602082015250565b6000613c52602983612cc8565b9150613c5d82613bf6565b604082019050919050565b60006020820190508181036000830152613c8181613c45565b9050919050565b600081905092915050565b60008154613ca0816134cf565b613caa8186613c88565b94506001821660008114613cc55760018114613cda57613d0d565b60ff1983168652811515820286019350613d0d565b613ce38561390c565b60005b83811015613d0557815481890152600182019150602081019050613ce6565b838801955050505b50505092915050565b6000613d2182612cbd565b613d2b8185613c88565b9350613d3b818560208601612cd9565b80840191505092915050565b6000613d538285613c93565b9150613d5f8284613d16565b91508190509392505050565b7f436f6479666967687465723a20746f6b656e20616c726561647920657869737460008201527f7300000000000000000000000000000000000000000000000000000000000000602082015250565b6000613dc7602183612cc8565b9150613dd282613d6b565b604082019050919050565b60006020820190508181036000830152613df681613dba565b9050919050565b7f436f6479666967687465723a20746f6b656e20494420616c726561647920757360008201527f6564000000000000000000000000000000000000000000000000000000000000602082015250565b6000613e59602283612cc8565b9150613e6482613dfd565b604082019050919050565b60006020820190508181036000830152613e8881613e4c565b9050919050565b7f436f6479666967687465723a20746f6b656e206d696e74207061757365640000600082015250565b6000613ec5601e83612cc8565b9150613ed082613e8f565b602082019050919050565b60006020820190508181036000830152613ef481613eb8565b9050919050565b7f436f6479666967687465723a206d6178696d756d20746f6b656e20737570706c60008201527f7920726561636865640000000000000000000000000000000000000000000000602082015250565b6000613f57602983612cc8565b9150613f6282613efb565b604082019050919050565b60006020820190508181036000830152613f8681613f4a565b9050919050565b7f436f6479666967687465723a207472616e736665722063616c6c65722069732060008201527f6e6f74206f776e6572206e6f7220617070726f76656400000000000000000000602082015250565b6000613fe9603683612cc8565b9150613ff482613f8d565b604082019050919050565b6000602082019050818103600083015261401881613fdc565b9050919050565b7f436f6479666967687465723a207472616e7366657220746f20746865207a657260008201527f6f20616464726573730000000000000000000000000000000000000000000000602082015250565b600061407b602983612cc8565b91506140868261401f565b604082019050919050565b600060208201905081810360008301526140aa8161406e565b9050919050565b7f436f6479666967687465723a207472616e73666572206e6f6e6578697374656e60008201527f7420746f6b656e00000000000000000000000000000000000000000000000000602082015250565b600061410d602783612cc8565b9150614118826140b1565b604082019050919050565b6000602082019050818103600083015261413c81614100565b9050919050565b7f4f776e61626c653a206e6577206f776e657220697320746865207a65726f206160008201527f6464726573730000000000000000000000000000000000000000000000000000602082015250565b600061419f602683612cc8565b91506141aa82614143565b604082019050919050565b600060208201905081810360008301526141ce81614192565b9050919050565b7f4552433732313a207472616e736665722066726f6d20696e636f72726563742060008201527f6f776e6572000000000000000000000000000000000000000000000000000000602082015250565b6000614231602583612cc8565b915061423c826141d5565b604082019050919050565b6000602082019050818103600083015261426081614224565b9050919050565b7f4552433732313a207472616e7366657220746f20746865207a65726f2061646460008201527f7265737300000000000000000000000000000000000000000000000000000000602082015250565b60006142c3602483612cc8565b91506142ce82614267565b604082019050919050565b600060208201905081810360008301526142f2816142b6565b9050919050565b7f4f776e61626c653a2063616c6c6572206973206e6f7420746865206f776e6572600082015250565b600061432f602083612cc8565b915061433a826142f9565b602082019050919050565b6000602082019050818103600083015261435e81614322565b9050919050565b7f4e487b7100000000000000000000000000000000000000000000000000000000600052601260045260246000fd5b7f45524337323155524953746f726167653a2055524920736574206f66206e6f6e60008201527f6578697374656e7420746f6b656e000000000000000000000000000000000000602082015250565b60006143f0602e83612cc8565b91506143fb82614394565b604082019050919050565b6000602082019050818103600083015261441f816143e3565b9050919050565b7f4552433732313a20617070726f766520746f2063616c6c657200000000000000600082015250565b600061445c601983612cc8565b915061446782614426565b602082019050919050565b6000602082019050818103600083015261448b8161444f565b9050919050565b7f4552433732313a207472616e7366657220746f206e6f6e20455243373231526560008201527f63656976657220696d706c656d656e7465720000000000000000000000000000602082015250565b60006144ee603283612cc8565b91506144f982614492565b604082019050919050565b6000602082019050818103600083015261451d816144e1565b9050919050565b7f5061757361626c653a206e6f7420706175736564000000000000000000000000600082015250565b600061455a601483612cc8565b915061456582614524565b602082019050919050565b600060208201905081810360008301526145898161454d565b9050919050565b7f5061757361626c653a2070617573656400000000000000000000000000000000600082015250565b60006145c6601083612cc8565b91506145d182614590565b602082019050919050565b600060208201905081810360008301526145f5816145b9565b9050919050565b600081519050919050565b600082825260208201905092915050565b6000614623826145fc565b61462d8185614607565b935061463d818560208601612cd9565b61464681612d03565b840191505092915050565b60006080820190506146666000830187612e04565b6146736020830186612e04565b6146806040830185612e9a565b81810360608301526146928184614618565b905095945050505050565b6000815190506146ac81612c2e565b92915050565b6000602082840312156146c8576146c7612bf8565b5b60006146d68482850161469d565b91505092915050565b7f4552433732313a206d696e7420746f20746865207a65726f2061646472657373600082015250565b6000614715602083612cc8565b9150614720826146df565b602082019050919050565b6000602082019050818103600083015261474481614708565b9050919050565b7f4552433732313a20746f6b656e20616c7265616479206d696e74656400000000600082015250565b6000614781601c83612cc8565b915061478c8261474b565b602082019050919050565b600060208201905081810360008301526147b081614774565b905091905056fea26469706673582212201a4b05424b4ffaaf75af179a457fdcd51ad9fa18f20f01de73c58d868b3440a564736f6c6343000812003368747470733a2f2f626c6f636b636861696e2e636f647966696768742e636f6d2f6e66742f636f6479666967687465722f",
  "linkReferences": {},
  "deployedLinkReferences": {}
}